:100000000EC028C027C026C025C024C023C022C0DF
:1000100021C020C01FC01EC01DC01CC01BC0112499
:100020001FBECFE5D1E0DEBFCDBF10E0A4E6B0E05B
:1000300001C01D92A536B107E1F710E0A0E6B0E0DF
:10004000EAE2F4E002C005900D92A436B107D9F7B8
:10005000B9D0E9C1D5CF2CE23CE404C0F901319715
:10006000F1F781508823D1F708952EE832E104C0DA
:10007000F9013197F1F781508823D1F708951F9343
:10008000CF93DF9317E0C8EAD1E608C0CDD0CE0108
:100090000197F1F7C5D0CE010197F1F71150B0F7F4
:1000A00080E197E229E130E0F9013197F1F701971A
:1000B000D9F7DF91CF911F9108951F93182F8823AF
:1000C00011F0AED001C0B0D080E593EC29E130E072
:1000D000F9013197F1F70197D9F7112311F0A4D065
:1000E00001C09ED08CE792E90197F1F7112311F03E
:1000F00097D001C099D080EA9FE029E130E0F90172
:100100003197F1F70197D9F7112311F08DD001C084
:1001100087D08CE792E90197F1F7112311F080D095
:1001200001C082D01F9108951F93182F882311F0CA
:1001300077D001C079D0DBD02CE23CE404C0F901D7
:100140003197F1F781508823D1F7112311F06CD04A
:1001500001C066D0CCD02EE832E104C0F90131975D
:10016000F1F781508823D1F71F9108951F93182F1D
:10017000882311F055D001C057D0B9D02CE23CE40F
:1001800004C0F9013197F1F781508823D1F7112389
:1001900011F04AD001C044D08CE792E90197F1F701
:1001A0001F91089502C050D037D0B399FCCF84E29C
:1001B00094EF0197F1F7B39BFECF84E294EF0197A0
:1001C000F1F708951F9381E087BBB39A35D03CD0F7
:1001D0001CD03AD090E08FD0E5DF3BD050DF10E06C
:1001E000B39902C01F5F4BDF133011F410E002C05F
:1001F000112319F481E061DFF3CF113019F481E0AC
:10020000B5DFEECF81E090DFEBCF93E09ABD8AB50A
:10021000806C8ABD93BF08958093640089BD089562
:100220008091640089BD08958AB5867019F08FEFBA
:1002300089BD089519BC08953D9A399A86B18360A5
:1002400086B9A49A379A0895369A3699FECF85B121
:10025000089537980895379A0895A0E0B0E0E2E352
:10026000F1E090C0EC01A880B980CA80DB80A114C5
:10027000B104C104D10441F484E2A82E89EDB82E62
:100280008BE5C82E87E0D82EC601B5012DE133EFEE
:1002900041E050E054D027EA31E440E050E036D06D
:1002A0007B018C01C601B5012DE133EF41E050E047
:1002B00046D0CA01B9012CEE34EF4FEF5FEF26D0E4
:1002C0006E0D7F1D801F911F97FF04C0615070400D
:1002D00080409048688379838A839B839B013F7722
:1002E000C901CDB7DEB7EAE069C0B7DF089580E69F
:1002F00090E0B3DF0895A0E0B0E0809360009093B9
:100300006100A0936200B09363000895FF27EE2779
:10031000BB27AA2760FF04C0A20FB31FE41FF51F6D
:10032000220F331F441F551F969587957795679524
:1003300089F70097760771F7CF01BD01089597FB04
:10034000092E05260ED057FD04D04BD00AD0001C34
:1003500038F450954095309521953F4F4F4F5F4F62
:100360000895F6F790958095709561957F4F8F4F22
:100370009F4F08952F923F924F925F926F927F927C
:100380008F929F92AF92BF92CF92DF92EF92FF92A5
:100390000F931F93CF93DF93CDB7DEB7CA1BDB0B51
:1003A0000FB6F894DEBF0FBECDBF09942A883988F6
:1003B00048885F846E847D848C849B84AA84B984FD
:1003C000C884DF80EE80FD800C811B81AA81B98109
:1003D000CE0FD11D0FB6F894DEBF0FBECDBFED011D
:1003E0000895A1E21A2EAA1BBB1BFD010DC0AA1F76
:1003F000BB1FEE1FFF1FA217B307E407F50720F08E
:10040000A21BB30BE40BF50B661F771F881F991F08
:100410001A9469F760957095809590959B01AC0151
:0A042000BD01CF010895F894FFCF4D
:04042A0001000000CD
:00000001FF
