:100000000EC015C014C013C012C011C010C00FC064
:100010000EC00DC00CC00BC00AC009C008C011241E
:100020001FBECFE5D1E0DEBFCDBF1ED047C0E8CFB9
:1000300098B3813019F4892F846002C0892F8B7F97
:10004000613011F4826001C08D7F413011F4816014
:1000500001C08E7F88BB08953F9A3D9A399A86B138
:10006000836086B9A49A08951F93CF93DF9387E0A6
:1000700087BBB39AF1DF10E0C0E5D3ECB399FECFB4
:10008000113049F0113028F0123041F0133071F482
:1000900009C080E001C081E060E002C080E061E072
:1000A00040E003C080E060E041E0C2DF1F5F143049
:1000B00009F410E0CE010197F1F7E0CFF894FFCFFB
:00000001FF
