:100000000EC028C027C026C025C024C023C022C0DF
:1000100021C020C01FC01EC01DC01CC01BC0112499
:100020001FBECFE5D1E0DEBFCDBF10E0A4E6B0E05B
:1000300001C01D92A536B107E1F710E0A0E6B0E0DF
:10004000E0E2F4E002C005900D92A436B107D9F7C2
:10005000B9D0E4C1D5CF2CE23CE404C0F90131971A
:10006000F1F781508823D1F708952EE832E104C0DA
:10007000F9013197F1F781508823D1F708951F9343
:10008000CF93DF9317E0C8EAD1E608C0CCD0CE0109
:100090000197F1F7C4D0CE010197F1F71150B0F7F5
:1000A00080E197E229E130E0F9013197F1F701971A
:1000B000D9F7DF91CF911F9108951F93182F8823AF
:1000C00011F0ADD001C0AFD080E593EC29E130E074
:1000D000F9013197F1F70197D9F7112311F0A3D066
:1000E00001C09DD08CE792E90197F1F7112311F03F
:1000F00096D001C098D080EA9FE029E130E0F90174
:100100003197F1F70197D9F7112311F08CD001C085
:1001100086D08CE792E90197F1F7112311F07FD097
:1001200001C081D01F9108951F93182F882311F0CB
:1001300076D001C078D0D6D02CE23CE404C0F901DE
:100140003197F1F781508823D1F7112311F06BD04B
:1001500001C065D0C7D02EE832E104C0F901319763
:10016000F1F781508823D1F71F9108951F93182F1D
:10017000882311F054D001C056D0B4D02CE23CE416
:1001800004C0F9013197F1F781508823D1F7112389
:1001900011F049D001C043D08CE792E90197F1F703
:1001A0001F91089502C04FD036D0B399FCCF84E29E
:1001B00094EF0197F1F7B39BFECF84E294EF0197A0
:1001C000F1F708951F9381E087BBB39A34D03BD0F9
:1001D0001BD039D090E08AD0E5DF51DF10E0B39931
:1001E00002C01F5F4CDF133011F410E002C0112376
:1001F00019F481E062DFF3CF113019F481E0B6DF4A
:10020000EECF81E091DFEBCF93E09ABD8AB5806CB1
:100210008ABD93BF08958093640089BD089580913D
:10022000640089BD08958AB5867019F08FEF89BD85
:10023000089519BC08953D9A399A86B1836086B9AC
:10024000A49A379A0895369A3699FECF85B10895C3
:10025000A0E0B0E0EDE2F1E090C0EC01A880B98050
:10026000CA80DB80A114B104C104D10441F484E24A
:10027000A82E89EDB82E8BE5C82E87E0D82EC601B2
:10028000B5012DE133EF41E050E054D027EA31E4ED
:1002900040E050E036D07B018C01C601B5012DE174
:1002A00033EF41E050E046D0CA01B9012CEE34EF03
:1002B0004FEF5FEF26D06E0D7F1D801F911F97FFC0
:1002C00004C06150704080409048688379838A837D
:1002D0009B839B013F77C901CDB7DEB7EAE069C0D8
:1002E000B7DF089580E690E0B3DF0895A0E0B0E0C6
:1002F0008093600090936100A0936200B0936300CC
:100300000895FF27EE27BB27AA2760FF04C0A20F8E
:10031000B31FE41FF51F220F331F441F551F96956F
:1003200087957795679589F70097760771F7CF01DD
:10033000BD01089597FB092E05260ED057FD04D068
:100340004BD00AD0001C38F450954095309521953B
:100350003F4F4F4F5F4F0895F6F7909580957095FA
:1003600061957F4F8F4F9F4F08952F923F924F92ED
:100370005F926F927F928F929F92AF92BF92CF9235
:10038000DF92EF92FF920F931F93CF93DF93CDB73E
:10039000DEB7CA1BDB0B0FB6F894DEBF0FBECDBFB6
:1003A00009942A88398848885F846E847D848C8487
:1003B0009B84AA84B984C884DF80EE80FD800C8190
:1003C0001B81AA81B981CE0FD11D0FB6F894DEBF73
:1003D0000FBECDBFED010895A1E21A2EAA1BBB1BD3
:1003E000FD010DC0AA1FBB1FEE1FFF1FA217B30701
:1003F000E407F50720F0A21BB30BE40BF50B661F17
:10040000771F881F991F1A9469F7609570958095DA
:1004100090959B01AC01BD01CF010895F894FFCFE9
:0404200001000000D7
:00000001FF
