:100000000EC01DC01CC01BC01AC019C018C017C02C
:1000100016C015C014C013C012C011C010C01124E6
:100020001FBECFE5D1E0DEBFCDBF10E0A0E6B0E05F
:1000300001C01D92A136B107E1F713D040C0E0CF57
:10004000089502C037D01ED0B399FCCF84E294EF5C
:100050000197F1F7B39BFECF84E294EF0197F1F79C
:10006000089581E087BBB39A1DD024D004D0E9DF86
:1000700080E090E0089593E09ABD8AB5806C8ABDD7
:1000800093BF08958093600089BD089580916000BA
:1000900089BD08958AB5867019F08FEF89BD0895DE
:1000A00019BC08953D9A399A86B1836086B9A49A9D
:1000B000379A0895369A3699FECF85B10895F89407
:0200C000FFCF70
:00000001FF
