:100000000EC028C027C026C025C024C023C022C0DF
:1000100021C020C01FC01EC01DC01CC01BC0112499
:100020001FBECFE5D1E0DEBFCDBF10E0A4E6B0E05B
:1000300001C01D92A536B107E1F710E0A0E6B0E0DF
:10004000ECEBF3E002C005900D92A436B107D9F7AE
:100050008DD0B2C1D5CF2CE23CE404C0F901319778
:10006000F1F781508823D1F708951F93CF93DF9341
:1000700015E0C0E5D3EC08C0A4D0CE010197F1F79C
:100080009CD0CE010197F1F71150B0F780E197E2D3
:1000900029E130E0F9013197F1F70197D9F7DF91C4
:1000A000CF911F9108951F93182F882311F085D0A9
:1000B00001C087D080E593EC29E130E0F901319768
:1000C000F1F70197D9F7112311F07BD001C075D05A
:1000D0008CE792E90197F1F7112311F06ED001C07E
:1000E00070D080EA9FE029E130E0F9013197F1F723
:1000F0000197D9F7112311F064D001C05ED08CE7CD
:1001000092E90197F1F7112311F057D001C059D0AE
:100110001F9108951F93182F882311F04ED001C00E
:1001200050D0AED02CE23CE404C0F9013197F1F795
:1001300081508823D1F7112311F043D001C03DD065
:100140008CE792E90197F1F71F91089502C049D019
:1001500030D0B399FCCF84E294EF0197F1F7B39BD1
:10016000FECF84E294EF0197F1F708951F9381E0A9
:1001700087BBB39A2ED035D015D033D090E084D041
:10018000E5DF10E0B39905C070DF113039F410E0FD
:1001900002C0112321F480E086DFF4CF11E080E07B
:1001A000B9DFF0CF93E09ABD8AB5806C8ABD93BF6A
:1001B00008958093640089BD08958091640089BD8D
:1001C00008958AB5867019F08FEF89BD089519BC1E
:1001D00008953D9A399A86B1836086B9A49A379A70
:1001E0000895369A3699FECF85B10895A0E0B0E023
:1001F000EBEFF0E090C0EC01A880B980CA80DB8012
:10020000A114B104C104D10441F484E2A82E89ED03
:10021000B82E8BE5C82E87E0D82EC601B5012DE19A
:1002200033EF41E050E054D027EA31E440E050E0C1
:1002300036D07B018C01C601B5012DE133EF41E0E1
:1002400050E046D0CA01B9012CEE34EF4FEF5FEF1A
:1002500026D06E0D7F1D801F911F97FF04C0615037
:10026000704080409048688379838A839B839B0198
:100270003F77C901CDB7DEB7EAE069C0B7DF0895BF
:1002800080E690E0B3DF0895A0E0B0E080936000E6
:1002900090936100A0936200B09363000895FF27DC
:1002A000EE27BB27AA2760FF04C0A20FB31FE41FDD
:1002B000F51F220F331F441F551F9695879577957D
:1002C000679589F70097760771F7CF01BD0108950B
:1002D00097FB092E05260ED057FD04D04BD00AD02F
:1002E000001C38F450954095309521953F4F4F4F65
:1002F0005F4F0895F6F790958095709561957F4FC3
:100300008F4F9F4F08952F923F924F925F926F921F
:100310007F928F929F92AF92BF92CF92DF92EF9295
:10032000FF920F931F93CF93DF93CDB7DEB7CA1B16
:10033000DB0B0FB6F894DEBF0FBECDBF09942A8841
:10034000398848885F846E847D848C849B84AA84E9
:10035000B984C884DF80EE80FD800C811B81AA8176
:10036000B981CE0FD11D0FB6F894DEBF0FBECDBF41
:10037000ED010895A1E21A2EAA1BBB1BFD010DC0C1
:10038000AA1FBB1FEE1FFF1FA217B307E407F50745
:1003900020F0A21BB30BE40BF50B661F771F881F21
:1003A000991F1A9469F760957095809590959B01B7
:0C03B000AC01BD01CF010895F894FFCF0F
:0403BC00010000003C
:00000001FF
